:100000000C9403010C942E010C942E010C942E01DF
:100010000C942E010C942E010C942E010C942E01A4
:100020000C942E010C942E010C942E010C942E0194
:100030000C942E010C942E010C942E010C942E0184
:100040000C942E010C942E010C942E010C942E0174
:100050000C942E010C942E010C942E010C948E07FE
:100060000C942E010C94D3090C942E010C942E01A7
:100070000C942E010C942E010C942E010C942E0144
:100080000C942E010C942E010C942E010C942E0134
:100090000C94140A0C942E010C942E010C942E0135
:1000A0000C942E010C942E010C942E010C942E0114
:1000B0000C942E010C942E010C942E010C942E0104
:1000C0000C942E010C942E010C942E010C94550AC4
:1000D0000C942E010C942E010C94960A0C942E0173
:1000E0000C942E0100002100240027002A002D007E
:1000F0003000330001010000040107010A01000083
:100100002200250028002B002E00310034000201BF
:100110000000050108010B0100002000230026005B
:1001200029002C002F00320000010000030106010D
:10013000090105050505070508080808020202026D
:100140000A0A080804040404010101010101010173
:100150000303030303030303040707070C0C0C0C3E
:100160000C0C0C0C02020202060606060606060627
:100170000B0B0B0B0B0B0B0B0102102020080810B4
:100180002040102040800201020108040201010207
:1001900004081020408080402010080402018004E0
:1001A000020180402010080402010804020101023B
:1001B0000408102040800102040810204080000044
:1001C000090A02080B0C0D070603040100000000D9
:1001D000000000000000000000000000000000001F
:1001E00000000000000000000000100F0E000000E2
:1001F00000000000000000000000000000000000FF
:1002000000000000450C11241FBECFEFD1E2DEBF7D
:10021000CDBF16E0A0E0B2E0ECE0FEE100E00BBFF5
:1002200002C007900D92AE35B107D9F71BBE18E09A
:10023000AEE5B6E001C01D92AD3EB107E1F712E0B8
:10024000C6E0D2E004C02297FE010E94000FC43035
:10025000D107C9F70E94150D0C94040F0C940000EF
:10026000FC0188279927E89421912032E9F329306D
:1002700010F02E30C8F32B3241F02D3239F468944F
:1002800004C00E944E01820F911D219120532A30FB
:10029000C0F31EF4909581959F4F08957AE0979F43
:1002A000902D879F802D910D1124089580918506B2
:1002B000882341F481E08093850681EA98E060E03C
:1002C00072E006C01092850681EA98E06EE072E066
:1002D0000E94550E0895BF92CF92DF92EF92FF9247
:1002E0000F931F93DF93CF9300D000D000D0CDB7F2
:1002F000DEB77E010894E11CF11C85E0C82ED12CEC
:10030000CC0EDD1EBB24B39445C081EA98E00E9468
:10031000D00B049744F1870181EA98E00E94FE0B1C
:10032000F80181938F01EC15FD05B1F7C7010E941B
:1003300030018C01F0E180309F073CF490937F0600
:1003400080937E06B09283060EC081EA98E06DE14C
:1003500072E00E94530D81EA98E0B80140E150E05C
:100360000E94600E1EC080918306813099F481EA5C
:1003700098E067E272E00E94530D60917E067091F2
:100380007F0681EA98E04AE050E00E94600E1092F9
:10039000830607C081EA98E00E94D00B05970CF411
:1003A000B4CF26960FB6F894DEBF0FBECDBFCF9167
:1003B000DF911F910F91FF90EF90DF90CF90BF9052
:1003C00008952F923F924F925F926F927F928F92F9
:1003D0009F92AF92BF92CF92DF92EF92FF920F93D4
:1003E0001F93DF93CF93CDB7DEB762970FB6F89424
:1003F000DEBF0FBECDBF019733E0880F991F3A953E
:10040000E1F720ECF22EF82A85E060E00E94B608C1
:1004100097E0C92ED12C01E010E0C8010C2C02C0DD
:10042000880F991F0A94E2F76F2D682386E00E94D7
:10043000B60887E061E00E94B60887E060E00E94AD
:10044000B6080894C108D10822E0C216D10429F7E1
:1004500087E061E00E94B60887E060E00E94B6088D
:1004600087E061E00E94B60887E060E00E94B6087D
:10047000188A1F861E861D861C861B861A8619866C
:1004800018861F821E821D821C821B821A8219827C
:100490002224332444245524662477248824992450
:1004A000AA24BB24CC24DD24EE24FF2400E010E0A9
:1004B0008BE090E0DBC084E30E944709098802C01A
:1004C000880F991F0A94E2F7EF85F889E80FF91F62
:1004D000F88BEF8782E30E944709098802C0880FE2
:1004E000991F0A94E2F72D853E85280F391F3E8714
:1004F0002D8780E30E944709098802C0880F991F51
:100500000A94E2F7EB85FC85E80FF91FFC87EB877F
:100510008EE20E944709098802C0880F991F0A9439
:10052000E2F729853A85280F391F3A8729878CE217
:100530000E944709098802C0880F991F0A94E2F7B0
:10054000EF81F885E80FF91FF887EF838AE20E94B0
:100550004709098802C0880F991F0A94E2F72D8184
:100560003E81280F391F3E832D8388E20E94470970
:10057000098802C0880F991F0A94E2F7EB81FC8179
:10058000E80FF91FFC83EB8386E20E944709098884
:1005900002C0880F991F0A94E2F729813A81280F37
:1005A000391F3A83298384E20E944709098802C0DF
:1005B000880F991F0A94E2F7280E391E82E20E94E2
:1005C0004709098802C0880F991F0A94E2F7480E6C
:1005D000591E80E20E944709098802C0880F991FAE
:1005E0000A94E2F7680E791E8EE10E944709098895
:1005F00002C0880F991F0A94E2F7880E991E8CE1B9
:100600000E944709098802C0880F991F0A94E2F7DF
:10061000A80EB91E8AE10E944709098802C0880F06
:10062000991F0A94E2F7C80ED91E88E10E94470973
:10063000098802C0880F991F0A94E2F7E80EF91E94
:1006400086E10E944709098802C0880F991F0A9411
:10065000E2F7080F191F87E061E00E94B60887E003
:1006600060E00E94B60889899A8901979A8B898BE4
:10067000E989FA89EF5FFF4F09F01DCF85E061E05E
:100680000E94B6088F85988990935F0680935E06D6
:10069000ED85FE85F0936106E09360062B853C8531
:1006A000309363062093620689859A859093650648
:1006B00080936406EF81F885F0936706E093660601
:1006C0002D813E8130936906209368068B819C8141
:1006D00090936B0680936A06E981FA81F0936D0628
:1006E000E0936C0630926F0620926E06509271066F
:1006F0004092700670927306609272069092750630
:1007000080927406B0927706A0927606D09279060F
:10071000C0927806F0927B06E0927A0610937D06EE
:1007200000937C0662960FB6F894DEBF0FBECDBF75
:10073000CF91DF911F910F91FF90EF90DF90CF90BD
:10074000BF90AF909F908F907F906F905F904F90F1
:100750003F902F900895CF92DF92EF92FF920F93E8
:100760001F93CF93DF93EE24FF2467010894C11CED
:10077000D11CC6010E94E1010EE516E0C0E0D0E008
:1007800081EA98E00E943E0EF8012081318180913B
:100790007E0690917F06281739070CF452C080918D
:1007A0008506813059F581EA98E06AE372E00E949B
:1007B000530D81EA98E0BE014AE050E00E942B0E02
:1007C00081EA98E060E472E00E94530D81EA98E0CB
:1007D00062E472E00E94530D81EA98E0B7014AE0BA
:1007E00050E00E942B0E81EA98E060E472E00E94E3
:1007F000530D81EA98E06CE472E018C081EA98E059
:10080000BE014AE050E00E942B0E81EA98E060E4CD
:1008100072E00E94530D81EA98E0B7014AE050E08F
:100820000E942B0E81EA98E060E472E00E94530D72
:10083000F8016081718181EA98E04AE050E00E940D
:10084000600E21960E5F1F4FC031D10509F098CF81
:10085000F8E0CF16D10411F0760187CF81EA98E055
:1008600064E572E00E94550EDF91CF911F910F91C8
:10087000FF90EF90DF90CF900895CF92DF92EF92AC
:10088000FF920F931F93DF93CF9300D000D0CDB78B
:10089000DEB77E010894E11CF11CDD24D394C8C0AE
:1008A00081EA98E00E94D00B03975CF181EA98E01E
:1008B0000E94FE0B898381EA98E00E94FE0B8A83E6
:1008C00081EA98E00E94FE0B8B83C7010E943001F1
:1008D0008C01813891053CF49093810680938006C9
:1008E000D09284060EC081EA98E06DE172E00E9429
:1008F000530D81EA98E0B80140E150E00E94600E9B
:100900009EC080918406813009F092C081EA98E00F
:1009100069E572E00E94530D609180067091810636
:1009200081EA98E04AE050E00E94600E0091800663
:10093000109181060930110524F461E0C62ED12CF6
:1009400015C0C80153E0959587955A95E1F7B80110
:10095000677070706115710521F46C0108E010E09A
:1009600005C06C010894C11CD11C8B01C8010E94F8
:10097000E1018091850676010894E108F108813053
:1009800059F581EA98E067E672E00E94530D81EA2A
:1009900098E0B6014AE050E00E942B0E81EA98E010
:1009A00062E772E00E94530D81EA98E065E772E029
:1009B0000E94530D81EA98E0B8014AE050E00E949D
:1009C0002B0E81EA98E062E772E00E94530D81EA03
:1009D00098E060E872E018C081EA98E0B6014AE069
:1009E00050E00E942B0E81EA98E062E772E00E94DC
:1009F000530D81EA98E0B8014AE050E00E942B0EC6
:100A000081EA98E062E772E00E94530DEE0CFF1C51
:100A10008EE596E0E80EF91EF7016081718181EAAA
:100A200098E04AE050E00E94600E1092840607C0F1
:100A300081EA98E00E94D00B04970CF431CF0F901C
:100A40000F900F900F90CF91DF911F910F91FF901A
:100A5000EF90DF90CF9008950F931F93CF93DF9384
:100A6000C0E0D0E000E010E02196CE010E94E1015C
:100A7000EEE5F6E081919191080F191F86E0EE37BF
:100A8000F807C1F7C830D10579F7C80160E870E010
:100A90000E949A0E70937F0660937E0681EA98E02A
:100AA00066E872E00E94530D60917E0670917F06A9
:100AB00081EA98E04AE050E00E94600EDF91CF9119
:100AC0001F910F910895CF92DF92EF92FF920F93B3
:100AD0001F93CF93DF93EE24FF2467010894C11C7A
:100AE000D11CC6010E94E1010EE516E0C0E0D0E095
:100AF00081EA98E00E943E0EF801208131818091C8
:100B00007E0690917F06281739070CF452C0809119
:100B10008506813059F581EA98E06AE372E00E9427
:100B2000530D81EA98E0BE014AE050E00E942B0E8E
:100B300081EA98E060E472E00E94530D81EA98E057
:100B400062E472E00E94530D81EA98E0B7014AE046
:100B500050E00E942B0E81EA98E060E472E00E946F
:100B6000530D81EA98E06CE472E018C081EA98E0E5
:100B7000BE014AE050E00E942B0E81EA98E060E45A
:100B800072E00E94530D81EA98E0B7014AE050E01C
:100B90000E942B0E81EA98E060E472E00E94530DFF
:100BA000F8016081718181EA98E04AE050E00E949A
:100BB000600E21960E5F1F4FC031D10509F098CF0E
:100BC000F8E0CF16D10411F0760187CF81EA98E0E2
:100BD00064E572E00E94550EDF91CF911F910F9155
:100BE000FF90EF90DF90CF9008950F931F93CF93D6
:100BF000DF9300E010E00F5F1F4FC8010E94E1018A
:100C0000CEE5D6E06991799181EA98E04AE050E03A
:100C10000E942B0E81EA98E068E972E00E94530D71
:100C200086E0CE37D80771F70830110521F781EA41
:100C300098E068E972E00E94550E64E170E080E09F
:100C400090E00E94D607DF91CF911F910F910895F8
:100C500081EA98E00E94D00B181619060CF0A2C089
:100C600081EA98E00E94FE0B009709F49BC0813353
:100C7000910551F40E94F50581EA98E00E94FE0B6F
:100C80008A319105B9F731C08233910551F40E9440
:100C9000630581EA98E00E94FE0B8A319105B9F75D
:100CA0002AC08333910549F481EA98E06AE972E049
:100CB0000E94550E0E946B0121C08433910519F4E6
:100CC0000E942C051BC08533910549F481EA98E008
:100CD00060EC72E00E94550E0E943D040FC0863306
:100CE000910519F40E94AB0309C08733910519F4EB
:100CF0000E94560103C04A9709F054C081EA98E067
:100D00006FED72E00E94550E81EA98E067EE72E0A6
:100D10000E94550E81EA98E066E373E00E94550E4A
:100D200081EA98E065E873E00E94550E81EA98E058
:100D300064ED73E00E94550E81EA98E063E274E08E
:100D40000E94550E81EA98E062E774E00E94550E19
:100D500081EA98E061EC74E00E94550E81EA98E027
:100D600060E175E00E94550E81EA98E06FE575E05C
:100D70000E94550E81EA98E06EEA75E00E94550ED9
:100D800081EA98E06DEF75E00E94550E81EA98E0E7
:100D900067EE72E00E94550E64E170E080E090E042
:100DA0000E94D6070895EF92FF920F931F9385E05C
:100DB00061E00E94900886E061E00E94900884E370
:100DC00060E00E94900882E360E00E94900880E367
:100DD00060E00E9490088EE260E00E9490088CE241
:100DE00060E00E9490088AE260E00E94900888E239
:100DF00060E00E94900886E260E00E94900884E231
:100E000060E00E94900882E260E00E94900880E228
:100E100060E00E9490088EE160E00E9490088CE102
:100E200060E00E9490088AE160E00E94900888E1FA
:100E300060E00E94900886E160E00E94900887E0F0
:100E400061E00E94900885E061E00E94B60886E0BB
:100E500060E00E94B60887E060E00E94B608109249
:100E600087061092860610927F0610927E061092D8
:100E70008206109284061092850601EA18E0C801E5
:100E800040E052EC61E070E00E94D70AC8016FEDCB
:100E900072E00E94550E77EEE72E72E0F72EC80141
:100EA000B7010E94550EC80166E373E00E94550E1B
:100EB000C80165E873E00E94550EC80164ED73E057
:100EC0000E94550EC80163E274E00E94550EC801ED
:100ED00062E774E00E94550EC80161EC74E00E9464
:100EE000550EC80160E175E00E94550EC8016FE51E
:100EF00075E00E94550EC8016EEA75E00E94550E1D
:100F0000C8016DEF75E00E94550EC801B7010E943F
:100F1000550E1F910F91FF90EF9008951F920F9221
:100F20000FB60F9211242F933F938F939F93AF93FC
:100F3000BF9380918C0690918D06A0918E06B09102
:100F40008F06309190060196A11DB11D232F2D5FB4
:100F50002D3720F02D570196A11DB11D209390062D
:100F600080938C0690938D06A0938E06B0938F0687
:100F70008091880690918906A0918A06B0918B068F
:100F80000196A11DB11D8093880690938906A093B8
:100F90008A06B0938B06BF91AF919F918F913F913D
:100FA0002F910F900FBE0F901F9018959B01AC01D1
:100FB0007FB7F8948091880690918906A0918A065F
:100FC000B0918B0666B5A89B05C06F3F19F00196DE
:100FD000A11DB11D7FBFBA2FA92F982F8827860F7B
:100FE000911DA11DB11D62E0880F991FAA1FBB1F93
:100FF0006A95D1F7BC012DC0FFB7F894809188069F
:1010000090918906A0918A06B0918B06E6B5A89BBF
:1010100005C0EF3F19F00196A11DB11DFFBFBA2F0A
:10102000A92F982F88278E0F911DA11DB11DE2E0D9
:10103000880F991FAA1FBB1FEA95D1F7861B970B34
:10104000885E9340C8F22150304040405040685183
:101050007C4F211531054105510571F608957894AD
:1010600084B5826084BD84B5816084BD85B58260AD
:1010700085BD85B5816085BDEEE6F0E0808181604B
:101080008083E1E8F0E080818260808380818160FC
:101090008083E0E8F0E0808181608083E1EBF0E034
:1010A000808184608083E0EBF0E0808181608083D8
:1010B000E1E9F0E0808182608083808181608083CB
:1010C000E1EAF0E0808182608083808181608083BA
:1010D000E1E2F1E0808182608083808181608083B1
:1010E000E0E9F0E0808181608083E0EAF0E08081E7
:1010F00081608083E0E2F1E0808181608083EAE7C3
:10110000F0E0808184608083808182608083808140
:10111000816080838081806880831092C1000895FF
:10112000482F50E0CA0188589E4FFC0124914E5C24
:101130005E4FFA0184918823C1F0E82FF0E0EE0FB2
:10114000FF1FEC51FF4FA591B491662341F49FB767
:10115000F8948C91209582238C939FBF08959FB71C
:10116000F8948C91822B8C939FBF0895482F50E068
:10117000CA0182549E4FFC012491CA0188589E4F97
:10118000FC0134914E5C5E4FFA019491992309F46D
:101190007DC0222309F462C0233021F480918000B5
:1011A0008F7705C0243031F4809180008F7D80934B
:1011B000800054C0213019F484B58F7704C02230E8
:1011C00021F484B58F7D84BD49C0263021F48091FF
:1011D000B0008F7705C0273031F48091B0008F7D4B
:1011E0008093B0003BC0283021F4809190008F772D
:1011F00005C0293031F4809190008F7D809390005C
:101200002DC02A3021F480919000877FF7CF2B30BA
:1012100021F48091A0008F770BC02C3021F48091B5
:10122000A0008F7D05C02D3031F48091A000877F14
:101230008093A00013C02E3021F4809120018F777D
:101240000BC02F3021F4809120018F7D05C020310B
:1012500029F480912001877F80932001E92FF0E01D
:10126000EE0FFF1FE250FF4FA591B491662341F4AA
:101270009FB7F8948C91309583238C939FBF0895EA
:101280009FB7F8948C91832B8C939FBF0895682F00
:1012900070E0CB0182549E4FFC012491CB01885811
:1012A0009E4FFC0144916E5C7E4FFB01949199230B
:1012B00019F420E030E075C0222309F462C0233025
:1012C00021F4809180008F7705C0243031F4809123
:1012D00080008F7D8093800054C0213019F484B544
:1012E0008F7704C0223021F484B58F7D84BD49C03E
:1012F000263021F48091B0008F7705C0273031F47B
:101300008091B0008F7D8093B0003BC0283021F4E5
:10131000809190008F7705C0293031F48091900042
:101320008F7D809390002DC02A3021F48091900011
:10133000877FF7CF2B3021F48091A0008F770BC0EF
:101340002C3021F48091A0008F7D05C02D3031F428
:101350008091A000877F8093A00013C02E3021F4DD
:10136000809120018F770BC02F3021F480912001D4
:101370008F7D05C0203129F480912001877F8093E3
:101380002001892F90E0880F991F885E9E4FFC01F5
:10139000A591B4918C9120E030E0842311F021E0FC
:1013A00030E0C90108951F920F920FB60F920BB64D
:1013B0000F9211242F933F934F935F936F937F93DB
:1013C0008F939F93AF93BF93EF93FF934091C6008A
:1013D000E0911107F0911207CF01019660E870E0EB
:1013E0000E949A0E9C018091130790911407281770
:1013F000390739F0EF56F94F4083309312072093A5
:101400001107FF91EF91BF91AF919F918F917F91C4
:101410006F915F914F913F912F910F900BBE0F9065
:101420000FBE0F901F9018951F920F920FB60F923C
:101430000BB60F9211242F933F934F935F936F93AB
:101440007F938F939F93AF93BF93EF93FF934091BD
:10145000CE00E0919507F0919607CF01019660E8E4
:1014600070E00E949A0E9C018091970790919807D6
:101470002817390739F0EB5EF84F40833093960711
:1014800020939507FF91EF91BF91AF919F918F911D
:101490007F916F915F914F913F912F910F900BBE74
:1014A0000F900FBE0F901F9018951F920F920FB6BE
:1014B0000F920BB60F9211242F933F934F935F938C
:1014C0006F937F938F939F93AF93BF93EF93FF930C
:1014D0004091D600E0911908F0911A08CF010196C9
:1014E00060E870E00E949A0E9C0180911B08909128
:1014F0001C082817390739F0E756F84F4083309316
:101500001A0820931908FF91EF91BF91AF919F9115
:101510008F917F916F915F914F913F912F910F909C
:101520000BBE0F900FBE0F901F9018951F920F9239
:101530000FB60F920BB60F9211242F933F934F9338
:101540005F936F937F938F939F93AF93BF93EF932B
:10155000FF9340913601E0919D08F0919E08CF01E4
:10156000019660E870E00E949A0E9C0180919F08AD
:101570009091A0082817390739F0E35EF74F4083B0
:1015800030939E0820939D08FF91EF91BF91AF91FA
:101590009F918F917F916F915F914F913F912F918B
:1015A0000F900BBE0F900FBE0F901F9018955F927B
:1015B0006F927F928F929F92AF92BF92CF92DF9263
:1015C000EF92FF920F931F93CF93DF93EC013A01B9
:1015D0004B01413482E458078FE0680780E07807C8
:1015E0000CF07FC060E874E88EE190E0A401930104
:1015F0000E94CF0E2150304040405040CA01B901F6
:1016000022E030E040E050E00E94CF0E59016A0134
:10161000A6019501209530954095509594E0220FB4
:10162000331F441F551F9A95D1F760E074E284EF91
:1016300090E00E94CF0ECA01B9012FEF30E040E0E8
:1016400050E00E947B0EA40193010E94CF0EC901BD
:1016500081509F4F181619061CF4522E5A9403C03D
:1016600055245394521A60E079E08DE390E0A40190
:1016700093010E94CF0E2150304040405040CA019B
:10168000B90122E030E040E050E00E94CF0E20950A
:1016900030954095509583E0220F331F441F551F0E
:1016A0008A95D1F760E074E284EF90E00E94CF0E5B
:1016B000CA01B9012FEF30E040E050E00E947B0EFC
:1016C000A40193010E94CF0EC90181509F4F1816AB
:1016D00019061CF4822F815002C081E0821B8515FF
:1016E00000F5E885F98581E090E00A8802C0880F5E
:1016F000991F0A94E2F7808360E079E08DE390E03F
:10170000A40193010E94CF0E215030404040504030
:10171000CA01B90122E030E040E050E00E94CF0E63
:1017200004C0E885F98510829501EC81FD81308344
:10173000EE81FF812083EA85FB85208141E050E036
:10174000CA010E8402C0880F991F0A94E2F7282B61
:101750002083EA85FB852081CA010F8402C0880F9F
:10176000991F0A94E2F7282B2083EA85FB85808164
:10177000088802C0440F551F0A94E2F7842B808327
:10178000DF91CF911F910F91FF90EF90DF90CF905D
:10179000BF90AF909F908F907F906F905F900895D3
:1017A000DC011296ED91FC911397E058FF4F819167
:1017B000919180589F4F20813181821B930B60E86B
:1017C00070E00E949A0E0895DC011296ED91FC9152
:1017D0001397EE57FF4F2081318192918291E0580B
:1017E000F0408217930719F42FEF3FEF05C0E20F87
:1017F000F31F8081282F30E0C9010895CF93DF9334
:10180000DC011296ED91FC911397EF01CE57DF4F5B
:1018100048815981E058FF4F80819181E058F04024
:101820008417950719F42FEF3FEF0CC0E40FF51F55
:101830002081CA01019660E870E00E949A0E9983A7
:10184000888330E0C901DF91CF910895DC011296C1
:10185000ED91FC911397EE57FF4F80819181929308
:1018600082930895FC01A085B18521898C9190E037
:10187000022E02C0959587950A94E2F780FFF6CF75
:101880000484F585E02D6083089520E536E03093EB
:10189000A2082093A10881E996E09093A408809380
:1018A000A30885EC90E09093A6088093A50884ECAB
:1018B00090E09093A8088093A70880EC90E0909324
:1018C000AA088093A90881EC90E09093AC088093DB
:1018D000AB0886EC90E09093AE088093AD08E4E00E
:1018E000E093AF0873E07093B00867E06093B108CD
:1018F00055E05093B20841E04093B3083093B508E7
:101900002093B40885E197E09093B7088093B608D8
:101910008DEC90E09093B9088093B8088CEC90E03F
:101920009093BB088093BA0888EC90E09093BD0830
:101930008093BC0889EC90E09093BF088093BE0828
:101940008EEC90E09093C1088093C008E093C208A9
:101950007093C3086093C4085093C5084093C608A9
:101960003093C8082093C70889E997E09093CA0884
:101970008093C90885ED90E09093CC088093CB08C4
:1019800084ED90E09093CE088093CD0880ED90E0B8
:101990009093D0088093CF0881ED90E09093D20887
:1019A0008093D10886ED90E09093D4088093D3087B
:1019B000E093D5087093D6086093D7085093D80861
:1019C0004093D9083093DB082093DA088DE198E042
:1019D0009093DD088093DC0885E391E09093DF0825
:1019E0008093DE0884E391E09093E1088093E0081F
:1019F00080E391E09093E3088093E20881E391E033
:101A00009093E5088093E40886E391E09093E708DB
:101A10008093E608E093E8087093E9086093EA0889
:101A20005093EB084093EC0808950E942F080E9401
:101A3000D3060E942806FDCF0F931F93CF93DF9309
:101A40008C01EB0109C02196D801ED91FC91019028
:101A5000F081E02DC801099568816623A1F7DF9127
:101A6000CF911F910F910895EF92FF920F931F93C3
:101A7000CF93DF938C017B01EA010CC0D7016D91FC
:101A80007D01D801ED91FC910190F081E02DC8011C
:101A900009952197209791F7DF91CF911F910F9191
:101AA000FF90EF900895DC01ED91FC910280F381AD
:101AB000E02D099508952F923F924F925F926F9279
:101AC0007F928F929F92AF92BF92CF92DF92EF92CE
:101AD000FF920F931F93DF93CF93CDB7DEB7A097FD
:101AE0000FB6F894DEBF0FBECDBF1C016A017B01AB
:101AF000411551056105710549F440E350E060E08E
:101B000070E020E030E00E94F50D56C08824992452
:101B10005401422E55246624772401E010E00C0F76
:101B20001D1F080D191DC701B601A30192010E94D6
:101B3000AD0EF80160830894811C911CA11CB11C9E
:101B4000C701B601A30192010E94AD0EC901DA01DD
:101B50006C017D01C114D104E104F104F1F681E0CE
:101B6000E82EF12CEC0EFD1EE80CF91C3E01089449
:101B7000611C711CD501C4010197A109B1096C0157
:101B8000C818D90816C0F601EE0DFF1D40814A3075
:101B900010F4405D01C0495C552747FD5095652F05
:101BA000752FC10120E030E00E94F50D0894E10896
:101BB000F1086E147F0439F7A0960FB6F894DEBFD3
:101BC0000FBECDBFCF91DF911F910F91FF90EF908E
:101BD000DF90CF90BF90AF909F908F907F906F904D
:101BE0005F904F903F902F900895EF92FF920F9348
:101BF0001F93CF93DF93EC017A018B0121153105FF
:101C000041F4E881F9810190F081E02D642F09957C
:101C10001BC02A303105B1F477FF10C04DE250E00F
:101C200060E070E020E030E00E94F50D1095009536
:101C3000F094E094E11CF11C011D111DCE01B801CE
:101C4000A7012AE00E945B0DDF91CF911F910F91B8
:101C5000FF90EF900895EF92FF920F931F937B01F7
:101C60009A010027F7FC0095102FB801A7010E94E8
:101C7000F50D1F910F91FF90EF9008950F931F9313
:101C80008C014DE050E060E070E020E030E00E9428
:101C9000F50DC8014AE050E060E070E020E030E07F
:101CA0000E94F50D1F910F9108950F931F938C01C2
:101CB0000E94530DC8010E943E0E1F910F9108957E
:101CC000CF92DF92EF92FF920F931F938C016B01E3
:101CD0009A01EE24D7FCE094FE2CB701A6010E94E5
:101CE000F50DC8010E943E0E1F910F91FF90EF90DD
:101CF000DF90CF900895629FD001739FF001829F83
:101D0000E00DF11D649FE00DF11D929FF00D839F8A
:101D1000F00D749FF00D659FF00D9927729FB00D27
:101D2000E11DF91F639FB00DE11DF91FBD01CF013A
:101D30001124089597FB092E07260AD077FD04D0B9
:101D400049D006D000201AF4709561957F4F089510
:101D5000F6F7909581959F4F0895A1E21A2EAA1B40
:101D6000BB1BFD010DC0AA1FBB1FEE1FFF1FA2174B
:101D7000B307E407F50720F0A21BB30BE40BF50B48
:101D8000661F771F881F991F1A9469F760957095D1
:101D9000809590959B01AC01BD01CF01089597FB03
:101DA000092E05260ED057FD04D0D7DF0AD0001C1F
:101DB00038F450954095309521953F4F4F4F5F4FE8
:101DC0000895F6F790958095709561957F4F8F4FA8
:101DD0009F4F0895AA1BBB1B51E107C0AA1FBB1F41
:101DE000A617B70710F0A61BB70B881F991F5A95A7
:101DF000A9F780959095BC01CD010895EE0FFF1FC6
:0C1E00000590F491E02D0994F894FFCFB8
:101E0C004465627567204D6F6465204F6E004465B4
:101E1C00627567204D6F6465204F6666004572726F
:101E2C006F723A203078005468726573686F6C6416
:101E3C00205365742040203A20004164633A20000E
:101E4C002C004368616E6E656C3A200056616C75AF
:101E5C00653A20002A2A2A2A0053656E736F722075
:101E6C004E6F2E203A200053656E736F7220583AD5
:101E7C0020002C200053656E736F7220593A20009D
:101E8C0056616C3A20005468726573686F6C6420FC
:101E9C0053657420403A20002000456E7465722012
:101EAC007468726573686F6C642076616C756520FC
:101EBC002830303030202D2034303935293A20006C
:101ECC00456E7465722073656E736F72204E6F2E43
:101EDC002028303030202D20313238293A20002073
:101EEC00202020202020002A2A2A2A2A2A2A2A2AAC
:101EFC002A2A2A2A2A2A2A2A2A2A2A2A2A2A2A2A36
:101F0C002A2A2A2A2A2A2A2A2A2A2A2A2A2A2A2A25
:101F1C002A2A2A2A2A2A2A2A2A2A2A2A2A2A2A2A15
:101F2C002A2A2A2A2A2A2A2A2A2A2A2A2A2A2A2A05
:101F3C002A2A2A2A2A002A20202020202020202079
:101F4C0020202020202020204F70746F53656E734A
:101F5C006F72204669726D77617265207665723397
:101F6C002E30202D2048656C70204D656E7520201C
:101F7C002020202020202020202020202020202055
:101F8C002020202A002A2020202020202020202051
:101F9C002020202020202020202020202020202035
:101FAC002020202020202020202020202020202025
:101FBC002020202020202020202020202020202015
:101FCC002020202020202020202020202020202005
:101FDC0020202A002A205B315D20486974203120A2
:101FEC00746F20676574207261772073656E736FF0
:101FFC0072206F7574707574202020202020202092
:10200C0020202020202020202020202020202020C4
:10201C0020202020202020202020202020202020B4
:10202C00202A002A205B325D2048697420322074FB
:10203C006F20676574206163746976652073656EC3
:10204C00736F72206F7574707574204F4E4C592CD1
:10205C002070726566696C7465722028782C792CF6
:10206C0076616C75652920202020202020202020DE
:10207C002A002A205B335D20486974203320746F5A
:10208C00207365742073657420706F696E742F747F
:10209C0068726573686F6C642076616C7565204D31
:1020AC00414E55414C202852616E67652030202DE1
:1020BC002034303935292020202020202020202AAF
:1020CC00002A205B345D20486974203420746F2012
:1020DC007365742061637469766520736574207010
:1020EC006F696E742F7468726573686F6C64207698
:1020FC00616C75652028417667204E6F6973652089
:10210C00537562737472616374696F6E29202A004F
:10211C002A205B355D20486974203520746F20744B
:10212C0065737420696E646976696475616C20737B
:10213C00656E736F72206F7574707574202020201B
:10214C002020202020202020202020202020202083
:10215C00202020202020202020202020202A002A7F
:10216C00205B365D20486974203620746F207072B5
:10217C00696E742073696E676C65206672616D653B
:10218C00206F75742020202020202020202020204B
:10219C002020202020202020202020202020202033
:1021AC002020202020202020202020202A002A202F
:1021BC005B375D20486974203720746F67676C65E6
:1021CC00206465627567206D6F6465202020202077
:1021DC0020202020202020202020202020202020F3
:1021EC0020202020202020202020202020202020E3
:1021FC0020202020202020202020202A002A202AD5
:10220C002A2A2048697474696E67206374726C2B77
:10221C007A20617420616E7974696D652077696CC0
:10222C006C20746F67676C65206265747765656E8A
:10223C00206F757470757420616E642074686520ED
:10224C006D656E752A2A2A2020202A0000000000C5
:0E225C00320C1C0D340DD00BFE0B260CE40BC7
:00000001FF
